:020000040800F2
:10000000F00B0020710200086D3900086539000806
:1000100069390008190A0008D951000800000000D9
:10002000000000000000000000000000CD480008B3
:10003000090D000800000000713900083949000866
:100040008B0200088B0200088B0200088B0200085C
:100050008B0200088B0200088B0200088B0200084C
:100060008B0200088B0200088B0200088B0200083C
:100070008B0200088B0200088B0200088B0200082C
:100080008B0200088B0200088B0200088B0200081C
:100090008B0200081D0A00088B0200088B02000872
:1000A0008B020008514900088B0200088B020008EF
:1000B0008B0200088B0200088B0200088B020008EC
:1000C0008B0200088B0200088B0200088B020008DC
:1000D0008B0200088B0200088B0200088B020008CC
:1000E0008B0200088B0200088B0200088B020008BC
:1000F0008B0200088B0200088B0200088B020008AC
:10010000000000000000000000000000DD430008C7
:100110008B0200088B0200088B0200088B0200088B
:100120008B0200088B0200088B0200088B0200087B
:100130008B0200088B020008000000000000000095
:100140008B0200088B0200088B02000800000000F0
:10015000000000000000000000000000000000009F
:1001600000000000000000008B0200088B02000865
:100170008B020008000000000000000000000000EA
:10018000000000008B02000800F002F800F060F8A8
:1001900014A696E8000CB244B344DA4501D100F04D
:1001A00057F8BAE80F000FA696E83000A5EB040553
:1001B00004EB0607AAEB0704A7F101074FEA1515A0
:1001C0004FEA3414A4F10104AC4201D300F040F82A
:1001D00013F0010F18BFFB1A43F0010300F001F800
:1001E000DBE71847EC5F00000C600000103A24BF0A
:1001F00078C878C1FAD8520724BF30C830C144BF8C
:1002000004680C6070470000704700000023002461
:1002100000250026103A28BF78C1FBD8520728BF16
:1002200030C148BF0B607047642900F0898000200E
:1002300070471FB505F020FD00F01EFB04000020F4
:10024000002105F003FD401C60601FBD10B510BD0E
:1002500000F0EDFA1146FFF7ECFF04F0BFFF00F0ED
:100260001DFB03B4FFF7F2FF03BC00F05FFB0000CF
:100270000948804709480047FEE7FEE7FEE7FEE73A
:10028000FEE7FEE7FEE7FEE7FEE7FEE70448054976
:10029000054A064B704700003D49000889010008E7
:1002A000F0050020F00B0020F0070020F0070020F0
:1002B0000FB41CB5074B06AA7B446946009005980D
:1002C00000F0E7F90020694600F0F6F91CBC5DF883
:1002D00014FB0000FD0300002DE9F0410E4604462A
:1002E000002020622046E168884730B3252805D0E9
:1002F000D4E901219047206A401CF2E7E1682046DA
:1003000000278847050018D0A5F14100192802D818
:1003100020354FF400673246294620462760FFF714
:1003200083FF40B1012804D0F61D26F007060836E9
:10033000D8E7361DD6E72846DAE7206ABDE8F0811F
:100340002DE9F0410646002410687529314616A5AE
:1003500010D0AFF30080002802DA404213A507E076
:1003600031688A0701D512A502E0490704D511A515
:10037000012401E0AFF3008000210A2206F12407E6
:1003800009E0B0FBF2FCB0FBF2F302FB1C003030E2
:1003900078541846491C0028F3D123462A46304693
:1003A000BDE8F04100F016B9000000002D0000008B
:1003B0002B0000002000000070B5064600F006F992
:1003C0000468054630460A22002100F07AF92C60C4
:1003D00070BD10B5431C02E010F8011B71B181071C
:1003E000FAD14FF0013202C88C1A8C4314EAC211C0
:1003F000F9D0C01A0A0603D0C01E10BDC01A10BD25
:100400000A0401D0801E10BD0902FCD0401E10BDA0
:1004100040EA010370B59B072ED14FF00136042A44
:100420002AD308C810C99D1B9D43121F15EAC61583
:1004300017D0D8B2E1B2401A50EA056110D198B293
:10044000A1B2401A50EA05410AD123F07F4024F0BE
:100450007F41401A50EA052102D1180EA0EB14602A
:1004600070BDA342DBD018BA21BA884201D901205D
:1004700070BD4FF0FF3070BD0AB9002070BD10F89C
:10048000013B11F8014B63B1A3420AD1521E08D0BF
:1004900010F8013B11F8014B1BB1A34201D1521ED0
:1004A000EDD1181B70BD421E12F8013F002BFBD18D
:1004B00011F8013B002B02F8013BF9D1704710B550
:1004C000203AC0F00B80B1E81850A0E81850B1E80D
:1004D0001850A0E81850203ABFF4F5AF5FEA027C4C
:1004E00024BFB1E81850A0E8185044BF18C918C07C
:1004F000BDE810405FEA827C24BF51F8043B40F81D
:10050000043B08BF7047D20728BF31F8023B48BF01
:1005100011F8012B28BF20F8023B48BF00F8012B3F
:1005200070474FF0000200B51346944696462039B6
:1005300022BFA0E80C50A0E80C50B1F12001BFF49C
:10054000F7AF090728BFA0E80C5048BF0CC05DF802
:1005500004EB890028BF40F8042B08BF704748BF50
:1005600020F8022B11F0804F18BF00F8012B7047C4
:1005700010B5044610F0030F08BF11F0030F40F050
:1005800015804FF0013E121FC0F20E8051F8043B5F
:10059000A3EB0E0C2CEA030C1CEACE1C08BF40F89F
:1005A000043BF0D0A1F1040102F10402521E08DB69
:1005B00011F8013B00F8013B002BF7D1114600F088
:1005C000B8F8204610BD7047704770470048704724
:1005D000000100202DE9F0470D4699469246044659
:1005E00000F124080168880604D5E06921F01001B3
:1005F000216000E00120A84201DD471B00E0002748
:10060000A1697A1902EB0900081AA0612078C006D6
:1006100002D42046AFF30080002608E0D4E901218F
:100620001AF806009047206A401C761C20624E454E
:10063000F4DB2078C0060AD52046AFF3008006E040
:10064000D4E9012130209047206A401C2062381EE6
:10065000A7F10107F4DC07E0D4E9012118F805004F
:100660009047206A401C2062281EA5F10105F3DC9A
:100670002046AFF300802078000602D50220BDE8B6
:10068000F0870120FBE7000001694A1C026108783D
:10069000704700B58FB0CDE90131002105910549C2
:1006A0007944CDE9031011466846FFF715FE0FB0F7
:1006B00000BD0000E5FFFFFF0A6802F8010B0A60B9
:1006C00070472DE9F04791460F46804604460026C4
:1006D00014F8015B2DB100F053F80068405DC007CD
:1006E000F6D12B2D02D02D2D18D0641E4A46394646
:1006F000204600F04DF827B13968A14201D1C7F872
:1007000000804FF0020471050BD54042002803DD44
:10071000FFF75CFF0460A007BDE8F08746F4806641
:10072000E4E70028F8DAFFF751FF04606FF00040BB
:10073000F2E74FF000020429C0F0128010F0030C21
:100740003FF4F1AECCF1040CBCF1020F18BF00F87D
:10075000012BA8BF20F8022BA1EB0C01FFF7E3BE91
:100760005FEAC17C24BF00F8012B00F8012B48BFD1
:1007700000F8012B7047000000487047000100207E
:1007800010B500F079F8001D10BD00BFC154000085
:100790002DE9F05F824615468B4600270AF10104D9
:1007A000B9460078302801D09DB113E014F8010B50
:1007B0000127782803D0582801D045B10AE00DB1AF
:1007C000102D07D1002714F8010B102502E0082591
:1007D00000E00A250026B0460EE005FB080005FBF8
:1007E00006F101271FFA80F801EB1046B6F5803FAD
:1007F00000D3B94614F8010B294600F041F800284F
:10080000EBDABBF1000F05D00FB1641E00E05446D7
:10081000CBF80040B9F1000F06D0FFF7D7FE022158
:100820000160C81EBDE8F09F48EA0640FAE7754639
:10083000FFF7A2FFAE4605006946534620F00700C9
:10084000854618B020B5FFF721FDBDE820404FF0E8
:1008500000064FF000074FF000084FF0000BAC46C9
:10086000ACE8C009ACE8C009ACE8C009ACE8C00914
:1008700021F007018D467047004870472001002095
:100880003A2800D2303820F02002412A01D3A2F1C8
:100890003700884201D34FF0FF30704710B504464F
:1008A000AFF300802046BDE81040FFF7DABC00003F
:1008B00030B44FF0013C50F8042B51F8043BCCFA13
:1008C00052F4D51A20D1FCB950F8042B51F8043B4E
:1008D000CCFA52F4D51A17D1B4B950F8042B51F808
:1008E000043BCCFA52F4D51A0ED16CB950F8042B53
:1008F00051F8043BCCFA52F4D51A05D1002CDAD0C9
:1009000030BC4FF00000704729BAB1FA81F111F004
:100910001801D1F120008440F2D1CA40CB4012F03E
:10092000FF0213F0FF0330BCD01A704701491820B2
:10093000ABBEFEE7260002007047000070B504461B
:100940000068826812F00C0F64D0C268920121D551
:10095000627E012A1ED1227E012A1BD1016849062E
:1009600013D449F20441C0F20901043948D00268A5
:1009700052065CBF02685FEA426206D40268520611
:100980005CBF02685FEA4262EFD5402101600C2142
:1009900006E000BF602903D1602108260EE000BFF9
:1009A0008268520706D58268920703D4826842F0B3
:1009B000100282600C294FF004060CD082681207E6
:1009C00006D58268920703D4826842F020028260D2
:1009D0006C2908BF0C2601F0B9FB216889683142F7
:1009E00018D0054603E000BF8068304212D001F005
:1009F000ADFB411B20680C29F6D381683142F3D04E
:100A0000206C40F010002064606C40F001006064D5
:100A1000012070BD002070BDFEE7000040F2B41060
:100A2000C2F2000001F078B82DE9F041A2B040F226
:100A3000DC10C2F2000003884FF2CD42A3F69951B8
:100A400089B2914202D800218046B4E0804638F84D
:100A5000023F4FF2CE41A3F6995292B28A4201D29E
:100A60000121A8E0804638F8043FA3F6995292B2DB
:100A70008A4201D202219EE0804638F8063FA3F662
:100A8000995292B28A4201D2032194E0804638F80A
:100A9000083FA3F6995292B28A4201D204218AE019
:100AA000804638F80A3FA3F6995292B28A4201D2A0
:100AB000052180E0804638F80C3FA3F6995292B2A7
:100AC0008A4201D2062176E0804638F80E3FA3F62E
:100AD000995292B28A4201D207216CE0804638F8DE
:100AE000103FA3F6995292B28A4201D2082162E0E5
:100AF000804638F8123FA3F6995292B28A4201D248
:100B0000092158E0804638F8143FA3F6995292B272
:100B10008A4201D20A214EE0804638F8163FA3F6F9
:100B2000995292B28A4201D20B2144E0804638F8B1
:100B3000183FA3F6995292B28A4201D20C213AE0B0
:100B4000804638F81A3FA3F6995292B28A4201D2EF
:100B50000D2130E0804638F81C3FA3F6995292B23E
:100B60008A4201D20E2126E0804638F81E3FA3F6C5
:100B7000995292B28A4201D20F211CE0804638F885
:100B8000203FA3F6995292B28A4201D2102112E07C
:100B9000804638F8223FA3F6995292B28A4201D297
:100BA000112108E0804638F8243FA3F6995292B20A
:100BB0008A4265D2122140F26814C2F20004207900
:100BC00040B16079814205D1E089984202D122B0DA
:100BD000BDE8F081012061714D1C46F25C1102AE4E
:100BE000207140F6985C40F26627C0F6000130465E
:100BF0002A46E381CDE9007CFFF75AFB3046FFF738
:100C0000E8FB82B240F2E040C2F2000031466423C9
:100C100002F0E0FDB8F8003046F29D11C0F6000188
:100C200002A82A46FFF744FB40F20000C2F200008F
:100C3000017831B9017821B9017811B90178002919
:100C4000F6D00025057040F26850C2F2000002A9FB
:100C50007F2280F87F50FFF78BFC258121890123BB
:100C60004A1C2281405C04F8060F40F2E430621C0A
:100C7000C2F20000214602F04BFA22B0BDE8F0813A
:100C800030F8263FA3F6995292B28A4202D213213B
:100C9000DAE600BF40F26814C2F2000420790028AE
:100CA00095D00020207140F20000C2F200000178CF
:100CB00031B9017821B9017811B901780029F6D04C
:100CC00040F268550026C2F2000546F29401067013
:100CD000C0F6000128467F2285F87F60FFF7EFFB12
:100CE000268120890123411C2181285C04F8060FFC
:100CF00040F2E430621CC2F20000214622B0BDE89E
:100D0000F04102F005BA000070470000F0B503683A
:100D100003F130421D0645EA1224052C4FF0010272
:100D20002AD840F2001CC5F2000CE646DFE804F0C9
:100D30000E042424080C00BF4FF0A04E06E000BFB4
:100D40000CF5806E02E000BF0CF5407E90F83C2070
:100D5000012A04BF0220F0BD9A6852075CBFDEF88A
:100D600008205FEA427209D5016C012241F020019E
:100D70000164002180F83C101046F0BD4FF4C162C0
:100D80000C68634508BF4FF40272B3F1A04F08BF6F
:100D90004FF402725CF8025025F4604514B34E68BB
:100DA00090F8307046EA473635434CF802509D685B
:100DB00005F00305012D02D11B68DB072DD1DEF8FC
:100DC000083003F00303012B03D1DEF80030DB070A
:100DD00023D15CF8023040F61F778968BB43194382
:100DE000214318E04CF80250996801F003010129F1
:100DF00002D11968C90710D1DEF8081001F003010B
:100E0000012903D1DEF80010C90706D15CF80210F1
:100E100040F61F7399434CF802100022A9E7000026
:100E20002DE9F04181B00022009290F83C20012A87
:100E300004D10221084601B0BDE8F0810123026817
:100E400080F83C3093685B0700F1C8814F68042F3D
:100E500007EB470312D8176B5E001F23D1F8008001
:100E600003FA06F5AF4308FA06F6374317639768A7
:100E700017F00C0F40F0D18042E000BF092F15D8C9
:100E80006FF01D06576B06EB43061F23D1F8008059
:100E900003FA06F5AF4308FA06F637435763976837
:100EA00017F00C0F40F0B9802AE000BF0E2F4FEA78
:100EB000430313D8976BA3F13C061F23D1F800809E
:100EC00003FA06F5AF4308FA06F6374397639768C7
:100ED00017F00C0F40F0A18012E000BFD76BA3F118
:100EE0005A061F23D1F8008003FA06F5AF4308FA2B
:100EF00006F63743D763976817F00C0F40F08D80E4
:100F000008EB48071426B8F1090F88BF1E3F88BFB9
:100F10001826955907248B68BC40A543BB402B433A
:100F20009351D1E90437D6685D1E032D16D80623E8
:100F300003EA960307FA03F6DFE805F002303E4CB9
:100F4000136E4FF20007C0F2FF373B4043EA88635D
:100F5000334343F0004313665FE000BF136E4FEA74
:100F6000886603F0F843B34240D1136E23F0004388
:100F70001366536E03F0F843B3423CD0936E03F014
:100F8000F843B34240D1936E23F000439366D36E8F
:100F900003F0F843B34240D13BE000BF536E4FF241
:100FA0000007C0F2FF373B4043EA8863334343F016
:100FB0000043536631E000BF936E4FF20007C0F26A
:100FC000FF373B4043EA8863334343F00043936673
:100FD00023E000BFD36E4FF20007C0F2FF373B4063
:100FE00043EA8863334343F0004315E0536E03F054
:100FF000F843B342C2D1536E23F000435366936E5D
:1010000003F0F843B342BED0D36E03F0F843B342CB
:1010100003D1D36E23F00043D366936803F0030338
:10102000012B03D11368DB0740F0F480CB6840F25A
:10103000083C0127C5F2000C012B07FA08F715D16F
:10104000D2F8B030B8F10A0F43EA070308EB4807BB
:10105000C2F8B0302CD393691B3F07268968BE4085
:10106000B343B9401943916105E000BFD2F8B01015
:10107000B943C2F8B01002F13041B1FA81F14FEA40
:10108000511EA2EB0C0101F50271B1FA81F149097F
:10109000B8F1100F4EEA010423D16146002C08BFBD
:1010A00001F580610968090200F1B480012132E094
:1010B000536938258968FE1C05FA07F7BB43B14020
:1010C0001943516102F13041B1FA81F14FEA511EE9
:1010D000A2EB0C0101F50271B1FA81F149094EEA66
:1010E0000104B8F1120F0BD0B8F1110F40F092804B
:1010F0006146002C08BF01F580610968C90106E05E
:101100006146002C08BF01F58061096849024FF073
:10111000000100F1808002F13043150645EA1327F3
:10112000052F0BD8ACF502750026DFE807F0110398
:1011300007070B0F4FF0A0450AE000BF002501266E
:1011400006E000BF0CF5FC7502E000BF0CF1F805ED
:10115000936803F00303012B02D11268D2073DD13B
:101160003EB9AA6802F00302012A02D12A68D20716
:1011700034D1C9B3BEF1000F4CD0DCF800104DF6ED
:10118000836241F40001CCF8001040F25801C2F231
:1011900000010968C4F21B32A1FB0212910C01EBA1
:1011A0008101490000910099A1B300990139009192
:1011B000009979B3009901390091009951B30099D0
:1011C00001390091009929B30099013900910099E2
:1011D00000294FF00001E8D11DE000BF016C41F093
:1011E00020010164012116E0B8F1110F08D1BEF110
:1011F000000F0FD0DCF8001041F0807108E000BF54
:10120000002C08BF0CF5806CDCF8001041F4800164
:10121000CCF800100021002280F83C20084601B0E4
:10122000BDE8F0810068006C70470000B0B582B086
:101230000446002001903CB1206CC00608D4206C0C
:1012400070B32168002542E1012002B0B0BD00BFAB
:101250000025206C00F01000401940F04A81206801
:101260008168490700F14581216C00F1304E21F47D
:10127000817102312164010641EA1E2140F2001C05
:101280000529C5F2000C65D800256346DFE801F0AA
:101290006C046262666A00BF4FF0A04364E000BF66
:1012A000002520466564C4E9125584F83C5000F0DE
:1012B00047F921688868C00000F10981886800F05A
:1012C0000300012803D10868C00740F0D580206CD6
:1012D000C006B7D4206C41F2021290430230206461
:1012E00088684DF6836220F0405088608868C4F2B8
:1012F0001B3240F08050886040F25800C2F200007B
:1013000000680025A0FB0202900C00EB800040006A
:1013100001900198002800F0DA80019801380190CE
:10132000019800283FF48EAF019801380190019890
:1013300000283FF487AF01980138019001980028F8
:101340003FF480AF01980138019001980028E4D162
:10135000BDE000BF0023012506E000BF0CF580635F
:1013600002E000BF0CF54073816801F00301012920
:1013700002D10168C9071ED13DB9996801F0030186
:10138000012902D11968C90715D1A0EB0C01BEFAD9
:101390008EF2B1FA81F15209490911434FF4C1614A
:1013A00018BF4FF402715CF80120636822F44032E8
:1013B0001A434CF80120616B627E0129D4E90215C1
:1013C0004FEA423341EA050194F8205003F5805377
:1013D00008BF5303012D41EA03011FD0A26A012A6D
:1013E00036D1826812F00C0F00F09C80C2684CF27B
:1013F0000703CFF6F0731A401143C1602169026BF5
:10140000012922F00F0102D1E269013A114301637F
:10141000002001216FF0030260646EE072B1226C63
:1014200042F0200222F002022264626C42F00102C9
:101430006264A26A012AD4D00AE000BF626A002373
:10144000CFF6FF7303EB42421143A26A012AC8D0D0
:1014500040F2005540F48073C5F20005AB4259D10B
:10146000B2F5807F50D0B2F5E07F51D0B2F5307F39
:1014700008BF4FF4E0724DE0886800F00D000128CD
:101480001BD1886840F0020088600320086000F0EB
:101490005DFE21688A68D2073FF419AF054603E074
:1014A0008868C0073FF413AF00F050FE401B21686E
:1014B0000328F5D38868C007F2D0206C012540F0DE
:1014C00010002064606C40F001006064206C88684B
:1014D000C00003D5886880007FF5BBAE206C40F06B
:1014E000100020F002002064606C40F00100606495
:1014F000206C012010216FF01202236C1A4011435E
:10150000216402B0B0BD00BF4FF4307202E000BFF2
:101510004FF48072E36A1A431143826812F00C0F91
:101520007FF464AFC26844F202039A43C260227E31
:1015300094F83030920342EA4302114356E7000028
:10154000F0B587B0006800F13041000640EA112094
:1015500000210528CDE90511CDE90311029100F222
:10156000EE80DFE800F00351ECEC9DBF40F260112B
:10157000C2F200010A6841F21400C4F20200531CD6
:101580000B6042B9016841F080510160016801F0CF
:10159000805101910199016840F2004741F4002116
:1015A00001600168C4F6000701F40021019101996E
:1015B000016802AC41F4003101600168032501F4C7
:1015C0000031019101990168002641F48001016018
:1015D0000068214600F480000190019807200290E5
:1015E00007F580600395049600F0CCFC0F2002A95B
:1015F00061C14FF09040214600F0C4FC1020CDE9BD
:10160000020507F5805494E040F26011C2F2000137
:101610000A6841F21400C4F20200531C0B6042B984
:10162000016841F080510160016801F08051019131
:101630000199016840F2004441F400210160016811
:10164000C4F6000401F4002101910199016802AD82
:1016500041F4003101600168032601F40031019179
:1016600001990168002741F4802101600068294642
:1016700000F48020019001983820029004F58060E9
:101680000396049700F07EFCF02002A9C1C14FF040
:101690009040294600F076FC0420CDE9020648E09F
:1016A00040F26011C2F200014A6841F21400C4F233
:1016B0000200531C4B6042B9016841F000510160C7
:1016C000016801F0005101910199016841F4802104
:1016D0000160006800F480200190019842F203004C
:1016E00020E000BF40F26011C2F200014A6841F2FE
:1016F0001400C4F20200531C4B6042B9016841F06F
:1017000000510160016801F00051019101990168E7
:1017100041F480210160006800F48020019001986C
:101720004FF4504040F2004402900320C4F60004FD
:1017300003900020049002A9204600F023FC07B08B
:10174000F0BD00002DE9F0410D46416904460068F6
:10175000082940F20831C5F2000101D1082721E033
:1017600040F20872A1F50273C5F20002984208BF68
:101770000A46B0F1A04F08BF0A461368DB060DD039
:10178000126812F4404F0CD0206C40F0200020640E
:10179000002084F83C000120BDE8F081C268D20737
:1017A000F2D10C2740F2001340F48072C5F200031E
:1017B0009A421ABF40F20872C5F200020A46126845
:1017C000D20607D040F2004340F48062C5F2000325
:1017D0009A4203D100F10C0208E000BFA1F50273A8
:1017E00001F58272984208BFA1F53F72D2F80080DD
:1017F00000F0ACFC21680A683A421BD0204650F841
:10180000402F08F4005342F400720260CA6802F4E8
:101810004062D21859D10A68120756D58B680268FF
:101820005B0749D422F4807202600268D20448D572
:101830004BE000BF0646681C39D0E5B9086838425D
:1018400022D008683842D9D1086838421CD00868CC
:101850003842D3D10868384216D008683842CDD112
:101860000868384210D008683842E7D0C6E700BFA1
:1018700008683842C2D100F069FC801B2168A84288
:10188000F6D908683842F3D1206C40F00400206497
:10189000002084F83C000320BDE8F081086838424D
:1018A000ACD108683842A9D108683842A6D1086886
:1018B0003842F3D0A2E700BF42F02000206404F1D8
:1018C0004400026842F0010202605FEA48404FF0C3
:1018D000000058BF0F60BDE8F0810000B0B501689E
:1018E00004468868400703D494F83C00012801D1DD
:1018F0000220B0BD012084F83C00886800F003009D
:10190000012802D10868C0072CD188683F22C8F29C
:10191000000210420CD0206C40F010002064606C7B
:1019200040F001006064002084F83C000120B0BD5C
:10193000886840F00100886000F008FC21680A68AF
:10194000D2070FD1054602E00868C0070AD100F0AF
:10195000FDFB401B21680328F6D30868C007F3D1BC
:10196000D9E700BF206C40F6017240F20833904383
:10197000C5F2000300F5807040F2001C206441F4C1
:101980008072C5F2000C184662451CBF40F2087018
:10199000C5F200000068C00607D040F2004541F4DF
:1019A0008060C5F20005A84248D1206C20F4801068
:1019B0002064C868800104D5206C012565F30D30D2
:1019C0002064206C0025C0044FF0000044BF606C10
:1019D00020F0060060641C2084F83C500860184623
:1019E00062451CBF40F20870C5F200000068C006E6
:1019F0001ED0184662451CBF40F20870C5F20000B8
:101A0000006800F01F00052812D062451CBF40F29C
:101A10000873C5F20003186800F01F00092807D0FA
:101A200040F2004241F48060C5F20002904217D1BA
:101A3000886840F0040088600020B0BD206CA3F5E9
:101A4000027540F48010A942206403D0D3F8040149
:101A5000B0E700BF4FF60450CFF6FF701858A9E763
:101A60000020B0BDB0B5044690F83C00012804BF8A
:101A70000220B0BD012520466C2184F83C50FEF7C1
:101A80005DFF28B1002084F83C002846B0BD00BFAF
:101A90002068816801F00301012913D10168C90799
:101AA00010D0816801F00D01012929D1816841F030
:101AB000020181600321016000F048FB2168896810
:101AC000C9070FD1204650F8401F41F2011291433F
:101AD000002541F001010160002084F83C00284607
:101AE000B0BD00BF054602E08068C007EAD000F044
:101AF0002DFB411B20680329F6D38168C907F3D069
:101B0000206C012540F010002064204650F8441F4E
:101B1000DFE70000704700002DE9F04F81B0044678
:101B200000684669D0F804908768D0F80CB0D0F807
:101B300010A0D0F81880F10704D1002530071DD47B
:101B400024E000BFF90710D00121BA07816009D451
:101B5000780700F1AF80380700F1B680204600F02A
:101B6000CBF902E0204600F0C9F90025F80500F1A4
:101B70008780F80300F1B180300707D51BF0100013
:101B800004D0206845F400751021C160700708D5A5
:101B90001BF0080005D020680821C160204600F035
:101BA000A1F9B00706D52068C068800702D020469A
:101BB00000F09AF9700607D51AF0100004D02068DA
:101BC00045F4806510210161B00608D51AF00800BF
:101BD00005D0206808210161204600F087F9F00651
:101BE00006D520680069800702D0204600F080F901
:101BF000B00308D519F0100005D02068102141600D
:101C0000204600F077F9F00308D519F0080005D058
:101C1000206808214160204600F07AF9300440F144
:101C20009B805FEA497040F1948006F4807008EA76
:101C3000102028435FEA8871014648BF41F0020145
:101C4000B20558BF01465FEA48700D4648BF45F0EF
:101C50000405700558BF0D46300540F17A8018F034
:101C6000700000F076801038000905286CD8DFE895
:101C700000F003595D61656945F0080564E000BF47
:101C800020684FF48071BA0581600BD4780515D4B3
:101C900038051DD4204600F033F9F8037FF56CAF0A
:101CA0001BE000BF204600F02DF9F8037FF564AF7C
:101CB00013E000BF4FF4006558E700BF05F500557D
:101CC000F8037FF559AF08E04FF480554EE700BFA9
:101CD00005F58045F8037FF54FAF20684FF480315C
:101CE000BA0381600AD4780310D4380314D4204690
:101CF00000F00AF930073FF541AF47E7204600F012
:101D000005F930073FF53AAF40E700BF05F500455C
:101D100030073FF533AF39E705F5803530073FF53C
:101D20002DAF33E745F010050EE000BF45F020056C
:101D30000AE000BF45F0400506E000BF45F0800521
:101D400002E000BF45F480752068816921F07001D0
:101D5000816120680421416055B1606A40EA050153
:101D60002046616201B0BDE8F04FFFF7D3BE00BF6F
:101D700001B0BDE8F08F0000002804BF01207047CB
:101D8000B0B5044690F8200010B9204600F06EF877
:101D90002068016841F00101016000F0D7F90546B3
:101DA00020684168C90705D100F0D0F9401B0B2815
:101DB000F6D310E0016821F00201016000F0C6F9DD
:101DC000054600BF2068416889070DD500F0BEF9BF
:101DD000401B0B28F6D3606A052140F40030606296
:101DE000012084F82010B0BD217E0268012922F074
:101DF000800208BF80320260617E0268012922F001
:101E0000400208BF40320260A17E0268012922F030
:101E1000200208BF20320260E17E0268012922F020
:101E2000100218BF10320260217F0268012922F0DF
:101E3000080208BF08320260617F0268012922F0AF
:101E4000040208BF04320260D4E901C2D4E90335B8
:101E500061691A432A431143ACF101021143C16184
:101E600000200121606284F82010B0BD006846F2B5
:101E70000041C4F20001884218BF704780B586B0A7
:101E800041F21400C4F20200816841F000718160E7
:101E9000816801F0007101910199016841F40031FC
:101EA0000160006801A900F40030019001984FF42E
:101EB000C050019002200290002003900320049063
:101EC000092005904FF0904000F05CF815200021AB
:101ED000002200F0BFFA152000F0AAFA06B0BDE813
:101EE0008040704770470000704700007047000056
:101EF0007047000070470000704700007047000006
:101F000070470000704700007047000070470000F5
:101F10007047000090F8211002291BD180B502689B
:101F2000416BD0E90FCE1368002923F00E03136034
:101F3000136823F0010313604FF0010202FA0EF25E
:101F4000CCF804204FF48072028418BF8847002028
:101F500080BD00BF0421816301207047B0B50446F5
:101F600000F0F4F8054640F25000C2F2000000789C
:101F7000611C18BF044400BF00F0E8F8401BA042F9
:101F8000FAD3B0BD2DE9F04F82B00D68002D00F0FE
:101F9000C58000F13847860546EA972741F20006DA
:101FA000C4F60006052240F2004EB04208BF0422EB
:101FB000C4F2010E042F38BF3A464FF0000C012442
:101FC00000270026009209E00D68013635FA06F276
:101FD00007F102070CF1040C00F0A08004FA06FBE4
:101FE00015EA0B08F0D0D1F804A003230AF003058A
:101FF0006A1EBB40012A6FEA03090FD88268CB68CA
:1020000002EA0902BB401A4382604268CAF3001325
:1020100022EA0B02B3401A43426003E0032D01D1D0
:1020200003251FE0C2688B6802EA0902BB401A431D
:10203000022DC26016D16FF0030202EA560202447A
:102040000CF01C050F23D2F820A003FA05FB0B6946
:102050002AEA0B0AAB4043EA0A031362D1F804A050
:102060000AF00305026805FA07F302EA09021A43B7
:102070001AF4403F0260A7D041F21803C4F20203F1
:102080001A684FF6084A42F001021A601A68CFF641
:10209000FF7A02F001020192019A26F003027244D3
:1020A00052F80A900CF00C050F23009CAB4029EA73
:1020B000030304FA05F52B4342F80A30DEF8082042
:1020C0004B6842EA080540F20C49DC0258BF22EA9C
:1020D0000805CEF80850C4F20109D9F800209D0285
:1020E00042EA080458BF22EA0804C9F80040DEF8B2
:1020F00004209D0342EA080458BF22EA0804CEF8EF
:102100000440DEF80020DB0342EA080458BF22EA5C
:102110000804CEF80040012456E700BF02B0BDE835
:10212000F08F00000069084018BF012070470000D0
:10213000426902EA0103914341EA03418161704728
:102140001823002A08BF2823C150704740F2E850E6
:10215000C2F200000068704790F84120202A03D1A5
:1021600090F84020012A01D102207047242280F8F3
:1021700041200268136823F001031360136823F4FD
:1021800080531360136819431160116841F0010115
:102190001160202180F84110002180F8401008468D
:1021A0007047000090F84120202A03D190F8402089
:1021B000012A01D102207047242280F841200268C0
:1021C000136823F001031360136823F4706343EA78
:1021D00001211160116841F001011160202180F896
:1021E0004110002180F8401008467047002804BFC5
:1021F0000120704710B5044690F8410028B900202E
:1022000084F84000204600F049F8242084F841007A
:1022100094E80910E2680168012A21F001010160D7
:1022200023F070610161816821F40041816003D174
:102230004CF40041816009E04CF40441022A8160C1
:1022400004D1416841F4006103E000BF416821F41A
:1022500000614160416804F1100C41F0007141F4EB
:1022600000414160C16821F40041C1609CE80E104A
:10227000114341EA0321C160216A41EA0C01016076
:10228000016841F00101016000202021606484F8B0
:102290004110206384F8420010BD0000006845F240
:1022A0000041C4F20001884218BF704710B586B0E3
:1022B00041F21404C4F20204206801A940F4802011
:1022C0002060206800F48020019001984FF4407055
:1022D000019012200290002003900320049004201B
:1022E000059040F20040C4F60000FFF74BFEA068E6
:1022F00040F40010A060A06800F400100090009866
:1023000006B0BDE81040704740F2500040F2E8517E
:10231000C2F20000C2F2000100780A6810440860AE
:102320007047000080B542F20000C4F2020001686C
:1023300041F010010160032000F0B8F80F2000F018
:1023400005F800F05BF8002080BD0000B0B586B055
:1023500041F21801C4F202010A68044642F4006224
:102360000A60096801A801F40061019101996946B8
:1023700000F08CFA00F0C0FA4DF68361C4F21B3114
:10238000A0FB01014FF0FF3000EB914140F24840CB
:1023900042F60042C2F20000C4F2010240F2E7330A
:1023A0000025C0E90021C0E902530561856100F004
:1023B00083FF054610B1284606B0B0BD40F2484044
:1023C000C2F2000000F0C0FF05460028F3D119203A
:1023D00000F02EF80F2C0DD81920214600220025E0
:1023E00000F038F840F25400C2F2000004602846C1
:1023F00006B0B0BD0125284606B0B0BD82B041F29E
:102400001800C4F20200016841F001010160016896
:1024100001F0010101910199416841F08051416051
:10242000406800F080500090009802B070470000B3
:10243000002848BF704700F01F01012202FA01F195
:102440001C2202EAD0004EF20012CEF200028150AD
:102450007047000010B54EF60C5CCEF2000CDCF8B4
:102460000030C3F3022E8EF00704042C28BF04248E
:10247000BEF103034FF0FF3E0EFA04F438BF002311
:10248000A14399400EFA03F39A43114300F00F025F
:1024900000F160430901043A03F5644362440028F3
:1024A00048BF02F10C03197010BD00004EF60C512C
:1024B000CEF200010A684FF6FF031A4060F30A22C9
:1024C00042F0806040F0FD70086070472DE9F041F7
:1024D00082B00446807841F23006C007C4F202069A
:1024E00056D056F8140C5FEAC0080BD456F8140CFA
:1024F00040F0805046F8140C56F8140C00F0805050
:102500000190019847F20007C4F200073868C0053F
:1025100012D4386840F480703860FFF717FE054623
:102520003868C00508D4FFF711FE401B6428F7D9AE
:10253000032002B0BDE8F08156F8100C10F4407092
:1025400015D0616801F44071884210D056F8100C23
:1025500040F24042C4F24222012320F44071136051
:102560000023C007136046F8101C40F0A18056F805
:10257000100C616820F440700843B8F1000F46F871
:10258000100C05D456F8140C20F0805046F8140CAA
:102590002068C10722D1810728D441072ED48106A3
:1025A00034D481033AD4410642D4010748D4C10649
:1025B0004ED4810554D401065CD4C10564D4C10451
:1025C0006CD4800405D53068616B20F4007008433A
:1025D0003060002002B0BDE8F08100BF3168A26821
:1025E00021F00301114331608107D6D53168E268DB
:1025F00021F44031114331604107D0D5316822695F
:1026000021F44021114331608106CAD53168E26965
:1026100021F01001114331608103C4D556F82C1C00
:10262000A26B21F48001114346F82C1C4106BCD555
:102630003168226A21F02001114331600107B6D5CB
:102640003168626921F4401111433160C106B0D58F
:102650003168A26921F44001114331608105AAD596
:1026600056F82C1CE26A21F40001114346F82C1C98
:102670000106A2D556F8041C626A21F4F8711143D0
:1026800046F8041CC1059AD556F8041CA26A21F428
:102690007851114346F8041CC10492D53168226B6D
:1026A00021F480711143316080048CD491E700BF24
:1026B000FFF74CFD054641F2883700BF56F8100C75
:1026C00080073FF554AFFFF741FD401BB8424FF084
:1026D0000300F3D97EE70000002804BF0120704703
:1026E0002DE9F04381B042F20008C4F2020804462A
:1026F000D8F800000D4600F0070088420CD2D8F848
:10270000000020F007002843C8F80000D8F80000B7
:1027100000F00700A84260D1206841F20409810757
:10272000C4F2020907D5D9F80010A26821F0F0011F
:102730001143C9F80010C00746D1D8F8000000F0D6
:102740000700A8420CD9D8F8000020F00700284361
:10275000C8F80000D8F8000000F00700A8423CD1FB
:102760002068410707D5D9F80010E26821F4E0613C
:102770001143C9F80010000708D5D9F800002169F5
:1027800020F4605040EAC100C9F80000D9F80010F8
:1027900049F2806001F00C02042AC0F2980059D07E
:1027A000082A47D146F22C13C1F38342C0F6000336
:1027B0009A5CD9F82830C90342D440F60010C0F220
:1027C0003D00504346E000BF606802280AD001285F
:1027D0002AD159F8041C890308D4012001B0BDE8AE
:1027E000F08300BF59F8041C8901F6D5D9F8001010
:1027F00021F003010843C9F80000FFF7A7FC0646D3
:1028000041F28837D9F80000616800F00C00B0EBA5
:10281000810F92D0FFF79AFC801BB842F2D90320B7
:1028200001B0BDE8F08300BF59F8041C8907D4D576
:10283000DCE700BF41F20020C0F27A000AE000BFEE
:1028400003F00F0146F23C13C0F60003595CB0FBE5
:10285000F1F05043D9F8001046F21412C1F30311FD
:10286000C0F60002515C40F2580220FA01F140F239
:102870005400C2F200000068C2F200021160FFF7CB
:1028800065FD002001B0BDE8F08300000F2202606A
:1028900041F20402C4F20202136803F0030343602E
:1028A000136803F0F0038360136803F4E063C3600C
:1028B00012684FF4E06303EAD202026142F20000C0
:1028C000C4F20200006800F00700086070470000D2
:1028D00040F2580041F20401C2F20000C4F20201C9
:1028E0000068096846F22412C1F30221C0F6000212
:1028F000515CC8407047000040F2580041F20401AA
:10290000C2F20000C4F202010068096846F2241213
:10291000C1F3C221C0F60002515CC84070470000FC
:1029200041F20401C4F202010A6849F2806002F037
:102930000C03042BC0F2980008BF7047082B11D17C
:1029400046F22C13C2F3834CC0F6000313F80C308C
:10295000896AD2030CD440F60010C0F23D005843FF
:10296000704700BF41F20020C0F27A00704700BFFC
:1029700046F23C1201F00F01C0F60002515CB0FBC0
:10298000F1F0584370470000002804BF0120704751
:102990002DE9F04182B00446007841F20006C007FC
:1029A000C4F202060CD0706800F00C00042840F05D
:1029B0007F803068800303D56068002800F0348190
:1029C000207880071BD5706810F00C0F09D0706854
:1029D00000F00C00082840F09F807068C00300F1F0
:1029E0009B803068800703D52069012840F01C8156
:1029F0003068616920F0F80040EAC100306020785A
:102A0000000713D4207840072AD4E569002D00F090
:102A10000681706800F00C00082840F0C180012D8C
:102A200040F0F280012002B0BDE8F081A0690028EA
:102A300000F09E800020C4F242200121C0F88014E2
:102A4000FFF784FB054600BF706A8007DAD4FFF702
:102A50007DFB401B0228F7D9032002B0BDE8F081BE
:102A6000F0695FEAC00808D4F06940F08050F06176
:102A7000F06900F080500190019847F20007C4F21D
:102A800000073868C00561D4386840F48070386049
:102A9000FFF75CFB054600BF3868C00556D4FFF75A
:102AA00055FB401B6428F7D9032002B0BDE8F08134
:102AB000706800F00C00082803D17068C0033FF56F
:102AC00078AF6068B0F5A02F00F0F080B0F5803FDF
:102AD00000F0F080002840F0F180306820F4803071
:102AE0003060306820F480203060F06AA16820F007
:102AF0000F000843F062FFF729FB054630688003AA
:102B00007FF55EAFFFF722FB401B64284FF0030008
:102B1000F4D902B0BDE8F0812069002840F200003D
:102B2000C4F242205ED001210160FFF70FFB054691
:102B3000306880073FF55CAFFFF708FB401B0228B9
:102B4000F6D9032002B0BDE8F08100BFE06800289C
:102B50006ED0052800F08680012800F08780306A5A
:102B600020F001003062306A20F0040081E000BFF4
:102B70000020C4F242200021C0F88014FFF7E6FADA
:102B8000054600BF706A80077FF53CAFFFF7DEFAAD
:102B9000401B0228F6D9032002B0BDE8F08100BF37
:102BA0000027C4F2422700203866FFF7CFFA022D33
:102BB00005460BD13068800140F1A080FFF7C6FACE
:102BC000401B02284FF00300F4D9A2E730688001CF
:102BD00025D5FFF7BBFA401B02284FF00300F5D9BB
:102BE00097E700BF00210160FFF7B0FA054600BF7C
:102BF000306880077FF503AFFFF7A8FA401B022873
:102C00004FF00300F4D984E77068216A00F4803241
:102C10008A4209D1616A00F47010884204D1002010
:102C200002B0BDE8F08100BF012002B0BDE8F08134
:102C3000306A20F001003062306A20F00400306217
:102C4000FFF784FA054641F2883700BF306A8007F3
:102C500022D5FFF77BFA401BB8424FF00300F5D9AD
:102C600057E700BF306A40F004003062306A40F03D
:102C700001003062FFF76AFA054641F2883700BF6B
:102C8000306A800708D4FFF761FA401BB842F7D9D1
:102C9000032002B0BDE8F081B8F1000F3FF5B5AEFA
:102CA000F06920F08050F061AFE600BF306840F47A
:102CB00080203060306840F4803006E0306820F4D6
:102CC00080303060306820F480203060F06AA16885
:102CD00020F00F000843F062FFF738FA054600BF06
:102CE000306880033FF56CAEFFF730FA401B642874
:102CF000F6D9032002B0BDE8F08100BF7068D4E9C6
:102D0000081220F4741010430843706001203866E4
:102D1000FFF71CFA044600BF306880013FF57FAF23
:102D2000FFF714FA001B02284FF00300F4D9F0E675
:102D300070470000B0B582B0044600684168826800
:102D400002F04103012B09D111F0400306D0E16CE0
:102D5000204602B0BDE8B040084700BF930709D540
:102D600011F0800306D0216D204602B0BDE8B040CE
:102D7000084700BF12F4B07F18BF11F0200301D143
:102D800002B0B0BD530618D594F85D30032B09D1BD
:102D900000210191C168019180680190019802B001
:102DA000B0BD00BF236E43F00403236600230193EC
:102DB000C368019383680193019B930604D4D205F1
:102DC00011D4226EDAB9DBE7236E43F001032366E8
:102DD0000023019383680193036823F04003036099
:102DE000019BD205EDD5226E42F008022266002238
:102DF000019282680192019A226E002AC0D0426834
:102E0000890722F0E00242604FF0010284F85D2061
:102E100020D0416844F2216521F003014160A06D9A
:102E2000C0F6000538B14563FFF774F818B1206E9D
:102E300040F040002066606D0028A1D04563FFF798
:102E400069F800289CD0206E40F04000206602B057
:102E5000B0BD00BF204602B0BDE8B040FFF768BF7C
:102E6000002804BF01207047B0B50446406A28B16D
:102E70000020206104F1140006E000BF6068B0F596
:102E8000827F03D004F11C00002101600025A562AF
:102E900094F85D0020B9204684F85C5000F052F8A8
:102EA000022084F85D002068D4F80CE00268BEF5CA
:102EB000E06F22F0400202604EF4006298BF0125EC
:102EC000B2F5706F1CBF0023A3624FEA053CD4E942
:102ED0000135D4E9042103F4827305F404452B443D
:102EE00002F002021A44A36901F00101E5691144EC
:102EF00003F40072114405F03802256A114405F00C
:102F00008002A56A114405F40052114301600421B6
:102F1000626A0EF4706501EA1341636B45EA0C05C1
:102F200002F01002294303F00803114319434160E2
:102F3000C16921F40061C16100200121206684F88B
:102F40005D10B0BD006843F60041C4F20001884244
:102F500018BF70472DE9F04186B041F21400C4F269
:102F60000200816801AC41F40041816081684FF04A
:102F7000020801F40041019101990168002641F421
:102F8000003101600168032701F4003101910199CA
:102F90000168062541F4002101600068214600F423
:102FA0000020019001984FF4004001904FF09040B4
:102FB000CDF80880039604970595FEF7E3FF4FF4DC
:102FC000E050CDE9010840F60000C4F600002146BB
:102FD000CDE903670595FEF7D5FF332000210022D8
:102FE000FFF738FA3320FFF723FA06B0BDE8F041C7
:102FF0007047000080B590F85D30012B22D1D0F8E9
:1030000008C09646BCF1000F0ED14268B2F5827F2F
:103010000AD14FF0040C0A46734680F85DC0BDE843
:10302000804000F075B800BF00294FF0010218BFC2
:10303000BEF1000F02D1104680BD00BF90F85C20A9
:10304000012A01D1022080BD012280F85C200422E7
:1030500080F85D20002202660164A0F844E0A0F838
:1030600046E082638287C28701680265C2684B6856
:10307000B2F5E06F44F2556223F4805344F2316EAE
:10308000C0F6000298BF03F58053C0F6000E88BF5B
:103090007246BCF5004F4B60C26407D10A6822F04B
:1030A00040020A600A6822F480420A600A685206F6
:1030B00003D40A6842F040020A60002280F85C20D3
:1030C000486840F060004860104680BD006843F2E8
:1030D0000001C4F20101884218BF704740F2681134
:1030E000C2F2000111F807CFB1F80300421CA1F8A9
:1030F000032040F2DC12C2F20002131840F2E43066
:10310000C2F20000012283F832C0FFF773BF000053
:1031100080B590F85DC0BCF1010F0ED0D0F804E08E
:10312000BEF5827F19D1BCF1040F4FF0020C0AD119
:10313000D0F808E0BEF1000F05D100294FF0010CD6
:1031400018BF002A02D1604680BD00BF002BFAD014
:1031500090F85CC0BCF1010F02D1022080BD00BF1D
:103160004FF0010C80F85CC090F85DC0BCF1040F1A
:103170001CBF4FF0050C80F85DC04FF0000CC0F88C
:1031800060C081638387C3870264A0F84430A0F8DD
:103190004630C168B1F5E06F0AD944F2E93144F232
:1031A0008542C0F60001C0F60002C0E913120BE030
:1031B00044F21D4144F2B542C0F60001C0F60002DF
:1031C000022BC0E9131213D301684A6822F480521B
:1031D0004A600A68520603D40A6842F040020A6054
:1031E00080F85CC0486840F0E0004860604680BD00
:1031F00001684A6842F480524A600A685206EBD578
:10320000EEE70000704700007047000070470000C4
:103210007047000090F83C20012A4FF0020248D08D
:10322000B0B580F83D20026843F2004C54689368C2
:10323000C4F2010C42F6004E6245C4F2010E01D008
:10324000724503D14D6824F470042C430D6824F0BA
:1032500070042C4342F6FF35C4F20105AA425460C3
:1032600010DCB2F1804F17D040F20045C4F20005E7
:10327000AA4211D040F60005C4F20005AA420BD0C4
:103280000FE000BF724507D044F20005C4F201050B
:10329000AA4201D0624504D1896823F08003194312
:1032A00091600121002280F83D1080F83C20BDE8AB
:1032B000B040104670470000002804BF012070474E
:1032C00010B5044690F83D0028B9002084F83C0071
:1032D000204600F023F8022084F83D002068211DDC
:1032E00001F03CFB012084F8480084F83E0084F89B
:1032F0003F0084F8400084F8410084F8420084F8DC
:10330000430084F8440084F8450084F8460084F8BB
:10331000470084F83D00002010BD00000068B0F1B7
:10332000804F18BF704781B041F21C00C4F2020008
:10333000016841F001010160006800F001000090A7
:10334000009801B07047000090F83D1001291DD190
:10335000022180F83D10016842F6FF32C868C4F2CD
:103360000102914240F00100C86011DCB1F1804FD0
:1033700020D040F20040C4F2000081421AD040F652
:103380000000C4F20000814214D020E00120704708
:1033900042F60040C4F2010081420BD044F200002A
:1033A000C4F20100814205D043F20040C4F20100A2
:1033B00081420CD188680722C0F201020240062A2D
:1033C0004FF00000E3D0B2F5803F08BF70470868B7
:1033D00040F00100086000207047000090F83C2099
:1033E000012A4FF0020200F0C58080B580F83D2030
:1033F000D0F800C08822DCF80830CFF6FE721A4000
:10340000CCF808200B684F2B28DC1F2B44DD202B29
:1034100045D0302B43D0402B40F0AE80D1F804E0B3
:10342000C968DCF82030DCF8202022F00102CCF85A
:103430002020DCF8182022F0F00242EA011123F0EB
:103440000A0242EA0E02CCF81810CCF82020DCF870
:10345000081041F0470121F0300180E06F2B27DD9B
:10346000B3F5005F48D0B3F5805F7AD0702B40F0A1
:103470008380D1E901E3C968DCF8082043EA0E0340
:1034800022F47F4243EA01211143CCF80810DCF812
:10349000081041F0770162E00BB1102B6CD1DCF821
:1034A000081021F07001194341F0070157E000BFF7
:1034B000502B35D0602B5FD1D1F804E0C968DCF81F
:1034C0002030DCF8202022F01002CCF82020DCF89C
:1034D000182022F4704242EA013123F0A00242EAAD
:1034E0000E12CCF81810CCF82020DCF8081041F0AF
:1034F000670121F0100132E0D1E901E3C968DCF88D
:10350000082043EA0E0322F47F4243EA01211143DB
:10351000CCF80810DCF8081041F480411FE000BF2F
:10352000D1F804E0C968DCF82030DCF8202022F073
:103530000102CCF82020DCF8182022F0F00242EA48
:10354000011123F00A0242EA0E02CCF81810CCF85E
:103550002020DCF8081041F0570121F02001CCF8C0
:1035600008100022012180F83D10002180F83C1055
:10357000BDE88040104670470122F3E77047000025
:10358000F0B581B004460068C5680669B10717D573
:1035900015F0020114D06FF00201016101212177C1
:1035A0008069800704D02046FFF7E8FF06E000BFEF
:1035B000204600F09BF8204600F09AF80020207783
:1035C000700719D515F0040016D020686FF00401BB
:1035D000016102212177806910F4407F04D02046E8
:1035E000FFF7CCFF06E000BF204600F07FF8204642
:1035F00000F07EF800202077300717D515F008007E
:1036000014D020686FF00801016104212177C0699E
:10361000800703D02046FFF7B1FF05E0204600F009
:1036200065F8204600F064F800202077F00619D5F0
:1036300015F0100016D020686FF01001016108210C
:103640002177C06910F4407F04D02046FFF796FF31
:1036500006E000BF204600F049F8204600F048F898
:1036600000202077F00718BF15F0010004D13006C4
:1036700005F080070BD412E020686FF001010161B2
:10368000204600F037F8300605F0800707D537B13F
:1036900020686FF0800101612046FFF7B7FDF0055B
:1036A00007D537B120686FF4807101612046FFF7BC
:1036B000ABFD700609D515F0400006D020686FF00C
:1036C00040010161204600F01FF8B0060CD515F04E
:1036D000200009D021686FF0200220460A6101B065
:1036E000BDE8F040FFF794BD01B0F0BD70470000A9
:1036F00070470000006842F60041C4F201018842B0
:1037000018BF7047FEF700BE7047000010B5C0B18B
:103710000446C06F28B9002084F87800204600F0E5
:1037200025F82420E0672068616A026822F001021F
:10373000026011B1204601F0A3F9204601F0CAFA57
:1037400010B1012010BD00BF2168486820F49040EE
:103750004860886820F02A008860086840F001020C
:1037600020460A60BDE8104001F000BA006843F648
:103770000001C4F20101884218BF704780B586B0CD
:1037800041F21400C4F20200416841F480414160FA
:10379000416801F4804101910199016841F40031CF
:1037A0000160006801A900F40030019001984FF415
:1037B000C06001900220029000200390032004903A
:1037C000072005904FF09040FEF7DCFB06B0BDE807
:1037D000804070472DE9F0410446C06F20281CBF8F
:1037E0000220BDE8F0810D4600294FF0010000F0F5
:1037F000B6801646002A08BFBDE8F0810020C4F854
:10380000840021209846E067FEF7A0FCA4F85060F1
:10381000A4F85260A1680646B1F5805F02D1206924
:1038200000286BD02F460025B4F8520000286BD03A
:1038300018F101001CD0B8F1000F3DD121680BE058
:1038400017F8010B0885B4F852000138A4F85200AB
:10385000B4F85200002858D0C869000640F17A80B8
:10386000002FEDD135F8020B00276FF35F20E9E759
:10387000216802E0C869000609D4C869000606D4B8
:10388000C86900065CBFC8695FEA0060F2D51FB175
:1038900017F8010B05E000BF35F8020B00276FF3A6
:1038A0005F200885B4F852000138A4F85200B4F83B
:1038B00052000028E1D128E0216800BFC869000655
:1038C00008D4FEF743FC801B404545D821680868B2
:1038D000F4E700BF17B117F8010B04E035F8020B4D
:1038E00000276FF35F200885B4F852000138A4F870
:1038F0005200B4F852000028E0D106E00027B4F8E6
:10390000520000287FF494AF2168C86940061FD494
:10391000B8F1000F1ED018F101000FD1C8694006A0
:1039200016D4C869400613D4C869400610D4C869C3
:1039300040064FF00000F1D50FE000BFFEF706FC97
:10394000801B404508D820680168C0694006F5D54D
:10395000002002E0FEF7FAFB03202021E167BDE82A
:10396000F0810000FEE70000FEE70000FEE7000037
:10397000704700002DE9F041A4B00178044651B32E
:10398000A01C00BFA1F16102D2B2192A9CBF20394C
:1039900000F8021C10F8011CE9B1A1F16102D2B2D9
:1039A000192A9CBF203900F8011C017899B1A1F1B6
:1039B0006102D2B2192A9CBF20390170417851B1FD
:1039C000A1F16102D2B2192A9CBF203941708178DD
:1039D00004300029D6D10FF6080120460722FCF753
:1039E00017FDA8B30FF6000120460722FCF710FDD3
:1039F000002800F071810FF2F87120460B22FCF7CD
:103A000007FD002800F056820FF2F07120460622D2
:103A1000FCF7FEFC002800F0658240F20000C2F2D4
:103A2000000000BF017831B9017821B9017811B9DE
:103A300001780029F6D040F268540025C2F2000453
:103A400045F69451057084F87F50C0F600018AE372
:103A500045F6944104ACC0F6000120468022FCF7F4
:103A60002EFD40F2DC18C2F2000846F2CC16B8F87F
:103A70000020C0F600066D4628463146FCF718FCCB
:103A800020462946FCF70FFDFCF7A3FC2C27B8F8CD
:103A90000220275228463146FCF70AFC20462946D8
:103AA000FCF701FDFCF795FCB8F8042027522846E6
:103AB0003146FCF7FDFB20462946FCF7F4FCFCF7F9
:103AC00088FCB8F80620275228463146FCF7F0FB60
:103AD00020462946FCF7E7FCFCF77BFCB8F80820F9
:103AE000275228463146FCF7E3FB20462946FCF7DF
:103AF000DAFCFCF76EFCB8F80A202752284631465B
:103B0000FCF7D6FB20462946FCF7CDFCFCF761FC10
:103B1000B8F80C20275228463146FCF7C9FB20464E
:103B20002946FCF7C0FCFCF754FCB8F80E202752DD
:103B300028463146FCF7BCFB20462946FCF7B3FC7F
:103B4000FCF747FCB8F81020275228463146FCF70E
:103B5000AFFB20462946FCF7A6FCFCF73AFCB8F878
:103B60001220275228463146FCF7A2FB2046294660
:103B7000FCF799FCFCF72DFCB8F8142027522846D6
:103B80003146FCF795FB20462946FCF78CFCFCF7F8
:103B900020FCB8F81620275228463146FCF788FB4F
:103BA00020462946FCF77FFCFCF713FCB8F81820E8
:103BB000275228463146FCF77BFB20462946FCF776
:103BC00072FCFCF706FCB8F81A202752284631464A
:103BD000FCF76EFB20462946FCF765FCFCF7F9FB79
:103BE000B8F81C20275228463146FCF761FB2046D6
:103BF0002946FCF758FCFCF7ECFBB8F81E202752CE
:103C000028463146FCF754FB20462946FCF74BFC7E
:103C1000FCF7DFFBB8F82020275228463146FCF796
:103C200047FB20462946FCF73EFCFCF7D2FBB8F8E0
:103C30002220275228463146FCF73AFB20462946E7
:103C4000FCF731FCFCF7C5FBB8F8242027522846C6
:103C50003146FCF72DFB20462946FCF724FCFCF7F7
:103C6000B8FBB8F82620275228463146FCF720FB3F
:103C700020462946FCF717FC40F20000C2F2000083
:103C8000017831B9017821B9017811B90178002999
:103C9000F6D00024047040F26850C2F2000004A97B
:103CA0007F2280F87F40FCF763FC40F26811C2F28B
:103CB00000010C810A89531C0B81805C01F8060FFE
:103CC00040F2E4304A1CC2F200000123FFF720FA60
:103CD00024B0BDE8F08100BF45F6145104ADC0F634
:103CE000000128468022FCF7EAFB40F26814C2F289
:103CF000000446F2CC17227FC0F600076E4630461D
:103D00003946FCF7D5FA28463146FCF7CCFBFCF7E0
:103D100060FB4FF02C08627F25F800803046394662
:103D2000FCF7C6FA28463146FCF7BDFBFCF751FB11
:103D3000A27F25F8008030463946FCF7B9FA2846BC
:103D40003146FCF7B0FBFCF744FBE27F25F800802E
:103D500030463946FCF7ACFA28463146FCF7A3FB5F
:103D6000FCF737FB94F8202025F8008030463946D0
:103D7000FCF79EFA28463146FCF795FBFCF729FB39
:103D800094F8212025F8008030463946FCF790FA57
:103D900028463146FCF787FBFCF71BFB94F82220F2
:103DA00025F8008030463946FCF782FA284631462D
:103DB000FCF779FBFCF70DFB94F8232025F8008035
:103DC00030463946FCF774FA28463146FCF76BFB5F
:103DD000FCF7FFFA94F8242025F800803046394695
:103DE000FCF766FA28463146FCF75DFBFCF7F1FA72
:103DF00094F8252025F8008030463946FCF758FA1B
:103E000028463146FCF74FFBFCF7E3FA94F82620EE
:103E100025F8008030463946FCF74AFA28463146F4
:103E2000FCF741FBFCF7D5FA94F8272025F8008031
:103E300030463946FCF73CFA28463146FCF733FB5E
:103E4000FCF7C7FA94F8282025F800803046394658
:103E5000FCF72EFA28463146FCF725FB40F200001D
:103E6000C2F20000017831B9017821B9017811B9A5
:103E700001780029F6D00025057040F26850C2F2A2
:103E8000000004A97F2280F87F50FCF771FB258198
:103E900021894A1C2281405C04F8060F40F2E4307C
:103EA000621CC2F2000021460123FFF731F924B061
:103EB000BDE8F08104F10B00017820290CD1417894
:103EC00020291FD18178202924D1C178202929D106
:103ED000043001782029F2D0412929D0612927D046
:103EE0001FE100BF053400BF607820286ED1A078A4
:103EF00020286DD1E07820286CD114F8040F2028F8
:103F0000F2D068E0412902D0612940F005810130FA
:103F10000EE000BF412902D0612940F0FF8002304D
:103F200006E000BF412902D0612940F0F98003304A
:103F30000130FCF741FA013814282DD240F2681400
:103F4000C2F2000401216170A070FEF7FFF8206149
:103F5000A07840F2DC11C2F2000131F8103046F2D4
:103F6000C811421CC0F6000104A8FCF7A1F940F2F8
:103F70000000C2F2000000BF017800297FF47BAF8F
:103F8000017800297FF477AF017800297FF473AFBF
:103F900001780029F0D06EE740F20000C2F2000084
:103FA000017831B9017821B9017811B90178002976
:103FB000F6D040F2685445F694710025C2F2000430
:103FC000C0F60001057084F87F50CCE0013402E0B7
:103FD000023400E003348BA120460522FCF718FAD6
:103FE00050B346F29811C0F6000120460422FCF7B7
:103FF0000FFA002846D085A120460622FCF708FAD1
:10400000002875D040F20000C2F20000017831B9FA
:10401000017821B9017811B901780029F6D040F270
:1040200068540025C2F2000445F61461057084F856
:104030007F50C0F6000196E040F26814C2F200041E
:104040000120E070FEF782F860610020207140F2EC
:104050000000C2F2000000BF017831B9017821B937
:10406000017811B901780029F6D040F2685545F67B
:1040700014710026C2F20005C0F60001067085F832
:104080007F601EE040F26814C2F200040020E0707D
:1040900040F20000C2F20000017831B9017821B984
:1040A000017811B901780029F6D040F26855002650
:1040B000C2F2000545F69461067085F87F60C0F68F
:1040C000000128467F22FCF7FAF926812089411C4D
:1040D0002181285C04F8060F40F2E430621CC2F231
:1040E00000002146012324B0BDE8F041FFF710B8DD
:1040F00040F26810C2F20000017900295AD04179DB
:10410000C3894A1C43A104A8FCF7D2F804A800F014
:10411000DFFB24B0BDE8F081013002E0023000E0B6
:10412000033046F29811C0F600010422FCF770F942
:10413000A0B340F20000C2F2000000BF017831B924
:10414000017821B9017811B901780029F6D040F23F
:1041500068540025C2F2000446F21401057084F888
:104160007F50C0F6000120467F22FCF7A8F940F2FC
:104170006811C2F200010D810889421C0A81205C8D
:1041800001F8060F40F2E4304A1CC2F2000001239D
:1041900024B0BDE8F041FEF7BBBF00BF40F268119C
:1041A000C2F20001002229A04A7024B0BDE8F0410B
:1041B00000F08EBB20480DF1140C04901EA0031DCE
:1041C0000ECB8CE80E00018A807CADF820108DF8B3
:1041D000220004A800F07CFB24B0BDE8F08100BF01
:1041E00041542D474554410041542D474554440006
:1041F00041542D434F4E54494E55410041542D5288
:10420000554E000053544152540000005354415441
:10421000555300004552524F522044455445435493
:1042200045443A204368616E6E656C2041256420E8
:104230003D202564000000004E4F204552524F5251
:10424000532044455445435445440000434F4E5485
:10425000494E554F55532053544F5050454400003C
:104260002DE9F04F87B00DF1040840F25C0940F2EF
:10427000DC1B08F108070024C2F20009C2F2000B9F
:104280004FF0000A08E000BF00262BF81A600AF180
:10429000010ABAF1140F28D009EBCA00406859F896
:1042A0003A5001900120029028464146C7E9004457
:1042B000C7E90244FCF7B4FD10BB2846FDF70EFB2E
:1042C0000028E1D128460A21FDF73CFA18B9284612
:1042D000FCF7A8FF06462846FDF7C4FB2BF81A603A
:1042E0000AF1010ABAF1140FD6D1BBF81A0040F254
:1042F0006811C2F20001888107B0BDE8F08F00BFED
:10430000EFF3108072B600BFFEE70000B0B540F2D8
:104310000005C2F20005E8696988FDF703FF40F275
:1043200068142A6AC2F20004A98820771046FDF7B3
:10433000F9FE6A6AE98860771046FDF7F3FEAA6A1B
:104340002989A0771046FDF7EDFEEA6A6989E077D2
:104350001046FDF7E7FE2A6BA98984F82000104675
:10436000FDF7E0FE6A6BE98984F821001046FDF74D
:10437000D9FEAA6B298A84F822001046FDF7D2FEE6
:10438000EA6B698A84F823001046FDF7CBFE2A6C9D
:10439000A98A84F824001046FDF7C4FE6A6CE98AF5
:1043A00084F825001046FDF7BDFEAA6C298B84F821
:1043B00026001046FDF7B6FEEA6C698B84F82700EC
:1043C0001046FDF7AFFE02464FF090404FF480716B
:1043D00084F82820BDE8B040FDF7AABE40F2E430E2
:1043E000C2F20000FEF7A6BC0168026CCB6822F89E
:1043F000023B0264B0F84620013AA0F84620B0F82B
:104400004620002A18BF70474A6822F040024A60DE
:10441000C18F002908BF00F073B87047B0F846207C
:104420000168022A12D3CA68036C23F8022B0364C2
:10443000B0F84620023AA0F84620B0F84620012AFB
:104440000FD14A6842F480524A600AE0097B026C4C
:104450001170016C01310164B0F846100139A0F807
:104460004610B0F84610002918BF704701684A6826
:1044700022F060024A60C18F002908BF00F040B8F6
:1044800070470000826B016832F8023BCB608263A8
:10449000C28F013AC287C28F002A18BF70474A688C
:1044A00022F080024A60B0F84610002908BF00F0F0
:1044B00027B87047C18F826B02294FF6FE7105D372
:1044C00032F802CB0368C3F80CC005E01278036829
:1044D00001311A73826B01328263C28F1144C1872A
:1044E000C18F002918BF704701684A6822F0800216
:1044F0004A60B0F84610002908BF00F001B87047C4
:10450000B0B50446FDF722FE216805464A682B46F1
:1045100022F02000486020464FF4C051642200F091
:10452000ADF868B9204664212A4600F067F938B929
:1045300020464FF4C06164222B4600F09FF838B14A
:10454000206E40F020002066206E40F020002066A3
:10455000206E38B10121204684F85D10BDE8B040DE
:10456000FEF7E6BB94F85D0001210428204684F89C
:104570005D1003D1BDE8B040FEF7A8BDBDE8B04076
:10458000FEF740BEB0B504460068416821F0600106
:104590004160FDF7DBFD61680546B1F5827F0BD117
:1045A000A068B0F5004F02D0B0F5806F04D120684C
:1045B000016821F040010160204664212A4600F094
:1045C0001DF948B1206E40F020002066206E40F0BA
:1045D0002000206614E000BF6068B0F5827F0FD134
:1045E000A068B0F5004F02D0B0F5806F08D120462A
:1045F0004FF4C06164222B4600F040F80028E1D15E
:10460000012084F85D00206E20B12046BDE8B04056
:10461000FEF78EBB2046BDE8B040FEF757BD000058
:10462000406A0021A0F84610C187FEF781BB000058
:104630000168026CC96822F8021B0264B0F84610D7
:104640000139A0F84610B0F84610002918BF70478D
:10465000FFF798BF0168097B026C1170016C013192
:104660000164B0F846100139A0F84610B0F84610C1
:10467000002918BF7047FFF785BF00002DE9F047FC
:1046800082B000261F4690460D4681468DF8036095
:10469000FDF75CFD381A00EB0807FDF757FD40F207
:1046A0005801C2F20001096823225143090DD9F8CB
:1046B000004079430191A168294235D0824618F122
:1046C000010035D0B5F5C06F1AD100BF207B8DF841
:1046D00003009DF80300FDF739FDA0EB0A00B84286
:1046E0005ED2019801990028A1F101010191D9F848
:1046F0000010896808BF074611F4C06FE6D112E0C8
:10470000FDF724FDA0EB0A00B84249D201980199B7
:104710000028A1F101010191D9F80010896808BFB2
:1047200007462942ECD10026304602B0BDE8F087AA
:104730000026B5F5C06F25D1207B8DF803009DF8CC
:104740000300A06810F4C06FEDD0207B8DF803004B
:104750009DF80300A06810F4C06FE4D0207B8DF8B2
:1047600003009DF80300A06810F4C06FDBD0207B2D
:104770008DF803009DF80300A06810F4C06FDBD132
:10478000D2E700BFA0682842CDD0A0682842CAD096
:10479000A0682842C7D0A0682842F3D1C4E700BF70
:1047A000D9E900014268B1F5827F22F0E00242605F
:1047B0000BD1D9F80810B1F5004F02D0B1F5806FD8
:1047C00003D1016821F040010160D9F82810B1F54A
:1047D000005F07D1016821F400510160016841F4D4
:1047E00000510160012089F85D00002089F85C001B
:1047F0000326304602B0BDE8F0870000F0B581B076
:1048000015460E460446FDF7A1FC281A8719FDF748
:104810009DFC40F25801C2F200010968C1F3CB319E
:104820007943009121688A68120622D50546701CDA
:1048300015D000BFFDF78AFC401BB8421CD200987F
:1048400000990028A1F1010100912168896808BF41
:1048500007460806EED40CE08868000609D588688B
:10486000000606D58868000644BF88685FEA0060D5
:10487000F2D4002001B0F0BDD4E900014268B1F5E6
:10488000827F22F0E00242600AD1A168B1F5004FB8
:1048900002D0B1F5806F03D1016821F040010160C1
:1048A000A16AB1F5005F07D1016821F400510160F0
:1048B000016841F400510160012084F85D0000208E
:1048C00084F85C00032001B0F0BD000070470000D8
:1048D00070B5044640F20000C2F20000017831B920
:1048E000017821B9017811B901780029F6D040F298
:1048F00068550026C2F20005067028468021FBF7A5
:1049000010FE284621467F22FBF732FE40F2681156
:10491000C2F200010E8108890123421C0A81285C31
:1049200001F8060F40F2E4304A1CC2F20000BDE874
:104930007040FEF7EDBB0000704700004EF6885057
:10494000CEF20000016841F4700101607047000080
:1049500040F24840C2F20000FEF712BE40F2FF7C77
:104960000268C4F2000C604522DD40F60003C4F288
:104970000003984225D043F20043C4F20103984259
:104980001FD042F60043C4F20103984219D043F20B
:10499000FF33C4F2010398421DDC60452ADCB0F10C
:1049A000804F3DD040F20043C4F2000336E000BF28
:1049B000B0F1804F05D040F20043C4F200039842AA
:1049C000E5D14B6822F070021A4343F2FF33C4F280
:1049D00001039842E1DD44F2FF33C4F2010398423F
:1049E00012DC43F20043C4F20103984218D044F2AF
:1049F000000311E040F60003C4F2000398420FD018
:104A000042F6004308E000BF44F60003C4F201038D
:104A1000984205D044F20043C4F20103984203D106
:104A2000CB6822F440721A4380B54B6922F0800EA5
:104A30008A6843EA0E03D1F800C00360C262A0F1A5
:104A40008042A2F59632830543EA9222072AC0F8F3
:104A500028C0BDE8804007D8012303FA02F212F013
:104A6000E50F1CBF09690163012141610169C907A3
:104A700008BF7047016921F0010101617047000022
:104A8000416A0A070ED4CA0717D18A0720D44A07F9
:104A900029D4CA0632D48A063BD480B54A0644D407
:104AA00058E000BF0268D0F834C0536823F40043D4
:104AB00043EA0C035360CA07E7D00268D0F828C065
:104AC000536823F4003343EA0C0353608A07DED5AE
:104AD0000268D0F82CC0536823F4803343EA0C03F7
:104AE00053604A07D5D50268D0F830C0536823F424
:104AF000802343EA0C035360CA06CCD50268D0F881
:104B000038C0936823F4805343EA0C0393608A0609
:104B1000C3D50268D0F83CC0936823F4005343EA3D
:104B20000C03936080B54A0614D50268D0F840C0E3
:104B30005368BCF5801F23F4801343EA0C035360D1
:104B400008D1D2F804C0D0F844E02CF4C00343EA02
:104B50000E035360090658BF80BD0168806C4A6827
:104B600022F400221043486080BD0000B0B582B03E
:104B700004460020C4F88400FDF7E8FA21680546E1
:104B80000A68120735D56FF07E4C20464FF40011AD
:104B900000222B46CDF800C000F07EF940B300BFE4
:104BA000206850E8000F216820F0800041E80002F2
:104BB000DAB1206850E8000F216820F0800041E859
:104BC000000292B1206850E8000F216820F08000B8
:104BD00041E800024AB1206850E8000F216820F047
:104BE000800041E80002002ADAD12020E0675FE07F
:104BF00021680868400761D56FF07E4C20464FF46D
:104C0000800100222B46CDF800C000F045F90028B5
:104C100054D000BF206850E8000F216820F4907045
:104C200041E80002E2B1206850E8000F216820F45A
:104C3000907041E800029AB1206850E8000F2168A6
:104C400020F4907041E8000252B1206850E8000F53
:104C5000216820F4907041E80002002ADAD100BFF8
:104C6000206850E8020F216820F0010041E80202AC
:104C7000DAB1206850E8020F216820F0010041E815
:104C8000020292B1206850E8020F216820F0010072
:104C900041E802024AB1206850E8020F216820F082
:104CA000010041E80202002ADAD12020C4F8800085
:104CB0000320002184F8781002B0B0BD2020E06706
:104CC000C4F88000002020666066002184F8781017
:104CD00002B0B0BDB0B505460168806805F10C04AE
:104CE0001CCC184340EA0403D5F81CC00C6849F2F8
:104CF0000C6024EA0000184340EA0C000860486891
:104D000020F4405010434860A8692A6A8B68104319
:104D100023F430621043886044F6FF30C4F2000090
:104D200081424FF0100219DD44F60040C4F2000049
:104D3000814227D045F20000C4F20000814229D010
:104D400043F60000C4F20100814239D141F2300043
:104D5000C4F2020001684CA22EE000BF44F2004001
:104D6000C4F2000081421DD044F60000C4F20000ED
:104D7000814225D141F23000C4F202000068810C6A
:104D800016E000BF41F23000C4F202000068010DDD
:104D90000EE000BF41F23000C4F202000068810D55
:104DA00006E000BF41F23000C4F202000068010CCE
:104DB00046F24C12C0F6000201F0030052F8202027
:104DC00041F20020BCF5004FC0F27A000ED1082A53
:104DD0004FF0010153D8DFE802F0051923521D52AC
:104DE00052522100FDF774FDD0B944E0082A4FF07B
:104DF000010144D8DFE802F0062832432C43434344
:104E0000300000BFFDF764FD40BB34E0FDF774FDEA
:104E100030B930E0FDF784FD10B92CE04FF40040CC
:104E200069684A0802EB4000B0FBF1F04FF6EF7200
:104E3000A0F11001914221D84FF6F0710140C0F36A
:104E40004200084415E000BFFDF756FD30B912E0FE
:104E5000FDF766FD10B90EE04FF4004069684FF6AB
:104E6000EF7200EB5100B0FBF1F0A0F110019142A4
:104E700004D82968C860002101E000BF0121002298
:104E80000846AA66EA66B0BD010000000400000002
:104E900008000000020000002DE9F0418046006893
:104EA0001546C2690E461140891BB1FA81F14909C4
:104EB000A94223D1069C2CB3611C29D1C169314080
:104EC000891BB1FA81F14909A94217D1C169314061
:104ED000891BB1FA81F14909A9420FD1C169314059
:104EE000891BB1FA81F14909A94207D1C169314051
:104EF000891BB1FA81F14909A942DFD00020BDE840
:104F0000F08100BFFDF722F90320BDE8F08100BF6A
:104F10001F4607E0C0693040801BB0FA80F04009AE
:104F2000A842EBD1FDF712F9C01BA04200F2B080FD
:104F3000D8F8000001684907ECD5402EEAD0802E51
:104F4000E8D0C169090700F1A780C1690905E1D569
:104F50004FF400610162D8F8000050E8000FD8F863
:104F6000001020F4907041E80002002A43D0D8F8E5
:104F7000000050E8000FD8F8001020F4907041E8CD
:104F80000002C2B3D8F8000050E8000FD8F80010B3
:104F900020F4907041E800026AB3D8F8000050E8AD
:104FA000000FD8F8001020F4907041E80002002AA9
:104FB000D1D120E0D8F8000050E8020FD8F8001056
:104FC00020F0010041E802020AB3D8F8000050E8DE
:104FD000020FD8F8001020F0010041E80202B2B13F
:104FE000D8F8000050E8020FD8F8001020F00100B7
:104FF00041E802025AB1D8F8000050E8020FD8F890
:10500000001020F0010041E80202002AD2D1D8F8B5
:10501000600001282CD1D8F8000050E8000FD8F823
:10502000001020F0100041E800020AB3D8F8000098
:1050300050E8000FD8F8001020F0100041E80002FE
:10504000B2B1D8F8000050E8000FD8F8001020F0F6
:10505000100041E800025AB1D8F8000050E8000FF3
:10506000D8F8001020F0100041E80002002AD2D148
:1050700020200021C8F88000C8F86010C8F8681027
:10508000C8F88400032088F87810BDE8F08100BFDC
:105090000320BDE8F08100BF08210162D8F80000BC
:1050A00050E8000FD8F8001020F4907041E800029A
:1050B000002A44D0D8F8000050E8000FD8F80010BB
:1050C00020F4907041E80002CAB3D8F8000050E81C
:1050D000000FD8F8001020F4907041E8000272B37D
:1050E000D8F8000050E8000FD8F8001020F49070B5
:1050F00041E80002002AD1D121E000BFD8F8000029
:1051000050E8020FD8F8001020F0010041E8020238
:105110000AB3D8F8000050E8020FD8F8001020F0C9
:10512000010041E80202B2B1D8F8000050E8020FD5
:10513000D8F8001020F0010041E802025AB1D8F876
:10514000000050E8020FD8F8001020F0010041E8FC
:105150000202002AD2D1D8F8600001282CD1D8F858
:10516000000050E8000FD8F8001020F0100041E8CF
:1051700000020AB3D8F8000050E8000FD8F8001079
:1051800020F0100041E80002B2B1D8F8000050E869
:10519000000FD8F8001020F0100041E800025AB1CA
:1051A000D8F8000050E8000FD8F8001020F01000E8
:1051B00041E80002002AD2D12020C8F88000002057
:1051C0000821C8F86000C8F86800C8F8841088F89A
:1051D00078000120BDE8F081FEE700009EB0FDF7F9
:1051E000A1F86846002404303821CDE91944CDE9FE
:1051F0001744FBF796F9032014904FF480300225F2
:10520000CDE915040121CDE91B504FF48010189110
:1052100010211D9014A81991FDF7B6FB20B1EFF3F2
:10522000108072B6FEE700BF0F20CDE90F054FF4E6
:105230008060CDE912040FA802211194FDF74CFA09
:1052400020B1EFF3108072B6FEE700BF212000907E
:105250000026684602960796FDF738F920B1EFF36D
:10526000108072B6FEE700BF41F21400CDE903667C
:10527000C4F20200016840F2004841F400210160DC
:105280000168002201F40021149114990168C4F608
:10529000000841F48001016001684FF4807401F45A
:1052A000800114911499016841F400310160016892
:1052B00001F4003114911499016841F480210160D6
:1052C000016801F4802114911499016841F480115E
:1052D000016000684FF4807100F4801014901498FD
:1052E0004FF09040FCF72CFF4046802100224FF009
:1052F0008009FCF725FF4EF2C0306D46CDE900066F
:1053000008F5806029460296FCF73CFE4FF44760A2
:10531000CDE90006404629460296FCF733FE0127F8
:105320004FF0904029460094CDE901760396FCF7B2
:1053300029FE042408F500602946CDE900460296BE
:10534000FCF720FE40462946CDE90097CDE90266EC
:10535000FCF718FE40F25020C2F200004FF0A041CE
:1053600008231696CDE91466CDE90466CDE90266F8
:10537000CDE900664FF40032467680F82060C0E93F
:105380000A76C36180F8306080E84600C0E90367B0
:10539000446106764663FBF749FF28B1EFF31080BE
:1053A00072B600BFFEE700BF40F250200024C2F2F8
:1053B000000014A91494FBF7A9FC28B1EFF31080A6
:1053C00072B600BFFEE700BF0120CDE9000040F249
:1053D0005020C2F200006946CDE90244CDE9044400
:1053E000FBF71EFD20B1EFF3108072B6FEE700BFA1
:1053F0000220CDE9000040F25020C2F200006946D0
:10540000FBF70EFD20B1EFF3108072B6FEE700BF90
:105410000320CDE9000040F25020C2F200006946AE
:10542000FBF7FEFC20B1EFF3108072B6FEE700BF81
:105430000420CDE9000040F25020C2F2000069468D
:10544000FBF7EEFC20B1EFF3108072B6FEE700BF71
:105450000520CDE9000040F25020C2F2000069466C
:10546000FBF7DEFC20B1EFF3108072B6FEE700BF61
:105470000620CDE9000040F25020C2F2000069464B
:10548000FBF7CEFC20B1EFF3108072B6FEE700BF51
:105490000720CDE9000040F25020C2F2000069462A
:1054A000FBF7BEFC20B1EFF3108072B6FEE700BF41
:1054B0000820CDE9000040F25020C2F20000694609
:1054C000FBF7AEFC20B1EFF3108072B6FEE700BF31
:1054D00040F2A02040F20015C2F200000722C5F2FF
:1054E00000054FF4003100240126C261042280F837
:1054F0002040C0E90A6480F83040C0E90051C0E9AA
:105500000244C0E9046204834463FBF78FFE18B1D0
:10551000EFF3108072B6FEE740F2A020C2F2000066
:105520006946CDE90066CDE90244CDE90444FBF7C4
:1055300077FC18B1EFF3108072B6FEE70220CDE9D8
:10554000000040F2A020C2F200006946FBF768FCB0
:1055500020B1EFF3108072B6FEE700BF0320CDE963
:1055600000000120039040F2A020C2F20000694632
:10557000FBF756FC20B1EFF3108072B6FEE700BFD8
:10558000042001900020039040F2A0200524C2F2E4
:10559000000069460094FBF743FC18B1EFF310805C
:1055A00072B6FEE70920CDE9000440F2A020C2F265
:1055B00000006946FBF734FC20B1EFF3108072B6AF
:1055C000FEE700BF0B2000900620019040F2A020D3
:1055D000C2F200006946FBF723FC18B1EFF310801C
:1055E00072B6FEE70C2000900720019040F2A02048
:1055F000C2F200006946FBF713FC18B1EFF310800C
:1056000072B6FEE740F2F020C2F200000327002449
:1056100005F540710123C76104271694CDE91444B0
:10562000CDE90444CDE90244CDE900444FF4003211
:10563000447680F82040C0E90A3480F8304080E8A1
:105640001600C0E90343476104764463FBF7EEFDAF
:1056500020B1EFF3108072B6FEE700BF40F2F020F9
:10566000C2F2000014A91494FBF750FB20B1EFF331
:10567000108072B6FEE700BF0120CDE900000020D7
:10568000CDE90200CDE9040040F2F020C2F20000B2
:105690006946FBF7C5FB18B1EFF3108072B6FEE761
:1056A000052000900220019040F2F020C2F200009C
:1056B0006946FBF7B5FB18B1EFF3108072B6FEE751
:1056C0000C2000900320019040F2F020C2F2000074
:1056D0006946FBF7A5FB18B1EFF3108072B6FEE741
:1056E00040F24030C2F20000022305F58061002440
:1056F0000125C36104234FF4003280F82040C0E943
:105700000A5480F8304080E81600C0E90345436140
:1057100004834463FBF78AFD20B1EFF3108072B677
:10572000FEE700BF0320CDE9000540F24030C2F2A1
:1057300000006946CDE90244CDE90444FBF770FB63
:1057400020B1EFF3108072B6FEE700BF0420009096
:105750000220019040F240300124C2F2000069466C
:105760000394FBF75DFB18B1EFF3108072B6FEE710
:1057700043F60045C4F2000540F2903005F5C051F3
:10578000C2F2000041F62B520023C0F2200280E852
:105790001E00C0E90433C0E906330362FCF726FDAE
:1057A00020B1EFF3108072B6FEE700BF40F29030F8
:1057B000C2F200000021FCF7CFFC18B1EFF310801B
:1057C00072B6FEE740F29030C2F2000000210024E1
:1057D000FCF7E8FC20B1EFF3108072B6FEE700BFE3
:1057E00040F2E04005F57C41C2F200000C234FF48A
:1057F000164280E81600C0E90344C0E90534C0E958
:1058000007444462FDF782FF20B1EFF3108072B6C7
:10581000FEE700BF40F2E430C2F2000000244FF483
:10582000E061C0E902410721C0E90054C0E9044435
:105830008461C0E90844C0E90A41C0E90C44FDF7AD
:105840000FFB18B1EFF3108072B6FEE740F2681B51
:10585000C2F2000B05F52051584640F84C1F1021AC
:10586000C0E90114C0E90344C0E905448483FCF79E
:1058700083FA18B1EFF3108072B6FEE740F294405D
:105880000021C2F200004FF080424FF0FF3303913D
:10589000CDE901111591C0E90021C0E902130161B0
:1058A0008161FDF709FD18B1EFF3108072B6FEE7D4
:1058B0004FF48050009040F29440C2F200006946DC
:1058C000FDF78CFD20B1EFF3108072B6FEE700BF4C
:1058D00040F294400024C2F2000014A914941694DB
:1058E000FDF798FC20B1EFF3108072B6FEE700BF21
:1058F000FF205E4606F8060F40F2E430721CC2F24A
:10590000000031460123FDF703FCFEF7A9FCFEF77A
:10591000FDFCF08840F6995188424FF00002404665
:105920004FF0800138BF0122FCF70AFC684600F105
:10593000080A9BF80000A8B10BF12900FEF71AF83D
:105940008BF80040CBF82940CBF82D40CBF8314004
:10595000CBF83540CBF83940CBF83D40CBF841404F
:10596000CBF845409BF80100002857D0FCF7EEFB30
:10597000DBF81010401AB0F57A7F4FD39BF8020085
:1059800040F2DC11C2F2000131F8103046F2C811C9
:10599000421C6846C0F60001FAF78AFC40F200009B
:1059A000C2F20000007890B940F20000C2F200009C
:1059B000007860B940F20000C2F20000007830B90F
:1059C00040F20000C2F2000000780028E6D040F269
:1059D0000000C2F20000047040F26850C2F2000001
:1059E00069467F2280F87F40FAF7C2FDABF8084095
:1059F000BBF808205E46511CABF80810805C012300
:105A000006F8060F40F2E430721CC2F20000314684
:105A1000FDF77EFBFCF79AFBC6F80A009BF8030033
:105A2000002848D0FCF792FBDBF81410401A6428D9
:105A300041D34FF000090BE0002740F2DC10C2F226
:105A4000000020F8197009F10109B9F1140F29D0EB
:105A500040F25C01C2F2000101EBC900406851F85C
:105A6000396000900120019030466946CAE900443F
:105A7000CAE90244FBF7D4F9002840F0DF80304641
:105A8000FBF72CFF0028D7D130460A21FBF75AFE3E
:105A900018B93046FBF7C6FB07463046FBF7E2FF76
:105AA000CBE700BF408BABF80C00FAF7BDFFFCF76B
:105AB0004DFBCBF81400FCF749FBDBF81810401A3B
:105AC0006528C0F0B28000250CE000BF3046FBF72F
:105AD000C9FF40F2DC10C2F2000020F81570013559
